:020000040000FA
:10000000470A08070A0A66060008800C2000080450
:1000100028050008020CA801280700084806180A4D
:1000200003056607030420030307000848050008CA
:100030006806210A68000805A402EA02000888058B
:10004000000868000805400243060008680500082B
:10005000B0021002910074031002920074031002A7
:10006000930074035402260000080B0C24000002C5
:1000700043063D0A010F43070008A4024002310075
:10008000A40240023300A402400232000008080C1F
:100090002500C80C0200400006004605060526059E
:1000A000FF0C34006100FA0C81000307530AF402CC
:1000B000520A66007000FF0C310033003200040C5D
:1000C0002A000B0C24006800080568056100CE0CAE
:1000D000E101280901098807760A3509040C2A007C
:1000E0000B0C2400680008056805670ACC0C810029
:0600F0000306760A670A10
:0400F60000080008F6
:021FFE00EB0FE7
:00000001FF
