:020000040000FA
:10000000120A010CA9010907000829060F0A0305B5
:100010006607030420030307000829050008660695
:1000200049050008080C2500C80C020066004000C5
:1000300006007000FF0C310033003200040C2A006F
:100040000B0C2400360C280069006100CE0CE10185
:10005000B0021002910074031002920074031002A7
:100060009300740354022600080222006606840AE4
:10007000800C2000F00C69010905400C2800840A5E
:1000800001094907840A40024307490A4C0C280029
:10009000840A360C2800840A6606840A800C200034
:1000A000F00C69010905560C2800840A010949076A
:1000B000840AA4024C0C2800EA02840A610C28007D
:1000C000840A0B0C240000024306690A010F43074F
:1000D0006C0A740C2800840A040C2A000B0C2400FF
:1000E000360C28006900840AA40240023100A402F0
:1000F00040023300A40240023200040C2A000B0C20
:100100002400360C28006900CC0C81000306840A08
:02011000260ABD
:0401120000080008D9
:021FFE00EB0FE7
:00000001FF
