:020000040000FA
:10000000240A010CA9010907000829060F0A0305A3
:100010006607030420030307000829050008660695
:10002000490500080B0C2400000243061A0A010FC0
:1000300043070008A40240023100A402400233003A
:10004000A402400232000008080C2500C80C02007F
:100050006600400006007000FF0C310033003200E3
:10006000040C2A000B0C2400480C280069006100D5
:10007000CE0CE101B0021002910074031002920054
:100080007403100293007403540226000802220035
:100090006606790A800C2000F00C69010905520CF3
:1000A0002800790A01094907790A400243075B0AD7
:1000B0005E0C2800790A480C2800790A6606790A3D
:1000C000800C2000F00C69010905680C2800790AF1
:1000D00001094907790AA4025E0C2800EA02790A9C
:1000E0001209040C2A000B0C2400480C280069009B
:0C00F000380ACC0C81000306790A380A9B
:0400FC0000080008F0
:021FFE00EB0FE7
:00000001FF
