:020000040000FA
:10000000600A08070A0A66060008800C2000080437
:1000100028050008020CA801280700084806180A4D
:1000200003056607030420030307000848050008CA
:1000300068000805A402EA020008880500082604F2
:10004000200C3000F002220A0000030529030307F8
:100050002604030626051E0C3000F0022D0A0000BF
:10006000310A030429024307260A00080B0C240066
:10007000050C2A00000229001F09A402EA023A0A1C
:100080000008B1021102920075031102930075037A
:100090001102940075035502000000080B0C2400A7
:1000A00000024306560A010F43070008A40240025B
:1000B0003200A40240023400A402400233000008CF
:1000C000080C2500C80C0200400006004605060585
:1000D0002605FF0C35006100FA0C810003076C0A4D
:1000E000F5026B0A66007100FF0C32003400330029
:1000F0004F0C29001F094B0C290029001F09050C72
:100100002A000B0C2400680008056100CE0CE101F8
:10011000410901098807940A3609050C2A000B0CCD
:10012000240068000805860ACC0C81000306940AA6
:02013000860A3D
:0401320000080008B9
:021FFE00EB0FE7
:00000001FF
