:020000040000FA
:10000000680A030466060008800C2800030C290017
:10001000E902080A00000000040C2900E9020E0AA7
:100020000000120A0305660703042803170A0307E2
:100030000C0A060C2900E9021B0A000003056607EA
:10004000030400082604040C2900E902250A000024
:10005000290A030528030307260403062605040CC2
:100060002900E902310A0000350A03042802430787
:100070002A0A000866060008010903070008AA0CFE
:100080008801430700080E0C2400040C33006606A8
:10009000470A01090307000808022000A402F3022E
:1000A000470A530900080E0C240040008001430653
:1000B0005D0A010C800143070008A40200022B0026
:1000C000A40200022D00A40200022C006A00000815
:1000D000080C2500C10C020040000600080C24009A
:1000E0006000A402A4076F0A460506052605FF0C5A
:1000F00033006100FA0C810003077A0AF302790ADF
:100100006600AA0273000A0243078B000306530528
:1001100066079A0A0A0243078D000306130566075D
:100120009A0A0A0243078C000306330513022600CD
:080130006606810A3A09810A02
:0401380000080008B3
:021FFE00EB0FE7
:00000001FF
