:020000040000FA
:10000000470A08070A0A66060008800C2000080450
:1000100028050008020CA801280700084806180A4D
:1000200003056607030420030307000848050008CA
:100030006806210A68000805A402EA02000888058B
:10004000000868000805400243060008680500082B
:10005000B0021002910074031002920074031002A7
:10006000930074035402260000080B0C24000002C5
:1000700043063D0A010F43070008A4024002310075
:10008000A40240023300A402400232000008080C1F
:100090002500C80C0200660040000600040C2A007F
:1000A0000B0C24006800080568056100CE0CE10116
:1000B000280901098807650A3509040C2A000B0C78
:1000C0002400680008056805560ACC0C8100030668
:0400D000650A560A5D
:0400D4000008000818
:021FFE00EB0FE7
:00000001FF
