:020000040000FA
:100000006C0A66060008800C2800060C2E00EE0222
:10001000070A00003509020C2E00EE020D0A00004E
:1000200000003509130A03056607030428030307C4
:100030000A0A00003509030500082604100C2E00EA
:10004000EE02200A0000240A030528030307260401
:10005000030626050D0C2E00EE022C0A00000000FF
:10006000030428024307250A0008AF0273000F02A9
:10007000900073030F02910073030F029200730349
:1000800053020000260000080A0C24000002280089
:100090001D09350900024306510A010F4306530AA0
:1000A000640A0000530A540A3509A40240023000D1
:1000B000A40240023200A402400231003509020CC1
:1000C0002E00EE02610A000000003509040C290030
:1000D0000A0C240068000008080C2500C80C020067
:1000E00040000600460506052605FF0C33006100AA
:1000F000FA0C81000307780AF302770A6600040C01
:1001000029000A0C240068006F00FF0C3000320048
:100110003100350901090307890A48024307890AA2
:10012000350901090307900A080220003509A402D5
:08013000E902900A4409890A62
:0401380000080008B3
:021FFE00EB0FE7
:00000001FF
